{
  "_format": "hh-sol-artifact-1",
  "contractName": "GenesisProtocol",
  "sourceName": "contracts/GenesisProtocol.sol",
  "abi": [
    {
      "inputs": [
        {
          "internalType": "string",
          "name": "uri_",
          "type": "string"
        }
      ],
      "stateMutability": "nonpayable",
      "type": "constructor"
    },
    {
      "inputs": [
        {
          "internalType": "address",
          "name": "sender",
          "type": "address"
        },
        {
          "internalType": "uint256",
          "name": "balance",
          "type": "uint256"
        },
        {
          "internalType": "uint256",
          "name": "needed",
          "type": "uint256"
        },
        {
          "internalType": "uint256",
          "name": "tokenId",
          "type": "uint256"
        }
      ],
      "name": "ERC1155InsufficientBalance",
      "type": "error"
    },
    {
      "inputs": [
        {
          "internalType": "address",
          "name": "approver",
          "type": "address"
        }
      ],
      "name": "ERC1155InvalidApprover",
      "type": "error"
    },
    {
      "inputs": [
        {
          "internalType": "uint256",
          "name": "idsLength",
          "type": "uint256"
        },
        {
          "internalType": "uint256",
          "name": "valuesLength",
          "type": "uint256"
        }
      ],
      "name": "ERC1155InvalidArrayLength",
      "type": "error"
    },
    {
      "inputs": [
        {
          "internalType": "address",
          "name": "operator",
          "type": "address"
        }
      ],
      "name": "ERC1155InvalidOperator",
      "type": "error"
    },
    {
      "inputs": [
        {
          "internalType": "address",
          "name": "receiver",
          "type": "address"
        }
      ],
      "name": "ERC1155InvalidReceiver",
      "type": "error"
    },
    {
      "inputs": [
        {
          "internalType": "address",
          "name": "sender",
          "type": "address"
        }
      ],
      "name": "ERC1155InvalidSender",
      "type": "error"
    },
    {
      "inputs": [
        {
          "internalType": "address",
          "name": "operator",
          "type": "address"
        },
        {
          "internalType": "address",
          "name": "owner",
          "type": "address"
        }
      ],
      "name": "ERC1155MissingApprovalForAll",
      "type": "error"
    },
    {
      "anonymous": false,
      "inputs": [
        {
          "indexed": true,
          "internalType": "address",
          "name": "account",
          "type": "address"
        },
        {
          "indexed": true,
          "internalType": "address",
          "name": "operator",
          "type": "address"
        },
        {
          "indexed": false,
          "internalType": "bool",
          "name": "approved",
          "type": "bool"
        }
      ],
      "name": "ApprovalForAll",
      "type": "event"
    },
    {
      "anonymous": false,
      "inputs": [
        {
          "indexed": true,
          "internalType": "address",
          "name": "player",
          "type": "address"
        }
      ],
      "name": "POAPMinted",
      "type": "event"
    },
    {
      "anonymous": false,
      "inputs": [
        {
          "indexed": true,
          "internalType": "address",
          "name": "operator",
          "type": "address"
        },
        {
          "indexed": true,
          "internalType": "address",
          "name": "from",
          "type": "address"
        },
        {
          "indexed": true,
          "internalType": "address",
          "name": "to",
          "type": "address"
        },
        {
          "indexed": false,
          "internalType": "uint256[]",
          "name": "ids",
          "type": "uint256[]"
        },
        {
          "indexed": false,
          "internalType": "uint256[]",
          "name": "values",
          "type": "uint256[]"
        }
      ],
      "name": "TransferBatch",
      "type": "event"
    },
    {
      "anonymous": false,
      "inputs": [
        {
          "indexed": true,
          "internalType": "address",
          "name": "operator",
          "type": "address"
        },
        {
          "indexed": true,
          "internalType": "address",
          "name": "from",
          "type": "address"
        },
        {
          "indexed": true,
          "internalType": "address",
          "name": "to",
          "type": "address"
        },
        {
          "indexed": false,
          "internalType": "uint256",
          "name": "id",
          "type": "uint256"
        },
        {
          "indexed": false,
          "internalType": "uint256",
          "name": "value",
          "type": "uint256"
        }
      ],
      "name": "TransferSingle",
      "type": "event"
    },
    {
      "anonymous": false,
      "inputs": [
        {
          "indexed": false,
          "internalType": "string",
          "name": "value",
          "type": "string"
        },
        {
          "indexed": true,
          "internalType": "uint256",
          "name": "id",
          "type": "uint256"
        }
      ],
      "name": "URI",
      "type": "event"
    },
    {
      "inputs": [],
      "name": "GENESIS_POAP",
      "outputs": [
        {
          "internalType": "uint256",
          "name": "",
          "type": "uint256"
        }
      ],
      "stateMutability": "view",
      "type": "function"
    },
    {
      "inputs": [
        {
          "internalType": "address",
          "name": "account",
          "type": "address"
        },
        {
          "internalType": "uint256",
          "name": "id",
          "type": "uint256"
        }
      ],
      "name": "balanceOf",
      "outputs": [
        {
          "internalType": "uint256",
          "name": "",
          "type": "uint256"
        }
      ],
      "stateMutability": "view",
      "type": "function"
    },
    {
      "inputs": [
        {
          "internalType": "address[]",
          "name": "accounts",
          "type": "address[]"
        },
        {
          "internalType": "uint256[]",
          "name": "ids",
          "type": "uint256[]"
        }
      ],
      "name": "balanceOfBatch",
      "outputs": [
        {
          "internalType": "uint256[]",
          "name": "",
          "type": "uint256[]"
        }
      ],
      "stateMutability": "view",
      "type": "function"
    },
    {
      "inputs": [
        {
          "internalType": "address",
          "name": "",
          "type": "address"
        }
      ],
      "name": "hasMinted",
      "outputs": [
        {
          "internalType": "bool",
          "name": "",
          "type": "bool"
        }
      ],
      "stateMutability": "view",
      "type": "function"
    },
    {
      "inputs": [
        {
          "internalType": "address",
          "name": "account",
          "type": "address"
        },
        {
          "internalType": "address",
          "name": "operator",
          "type": "address"
        }
      ],
      "name": "isApprovedForAll",
      "outputs": [
        {
          "internalType": "bool",
          "name": "",
          "type": "bool"
        }
      ],
      "stateMutability": "view",
      "type": "function"
    },
    {
      "inputs": [
        {
          "internalType": "address",
          "name": "player",
          "type": "address"
        }
      ],
      "name": "mintGenesis",
      "outputs": [],
      "stateMutability": "nonpayable",
      "type": "function"
    },
    {
      "inputs": [
        {
          "internalType": "address",
          "name": "from",
          "type": "address"
        },
        {
          "internalType": "address",
          "name": "to",
          "type": "address"
        },
        {
          "internalType": "uint256[]",
          "name": "ids",
          "type": "uint256[]"
        },
        {
          "internalType": "uint256[]",
          "name": "values",
          "type": "uint256[]"
        },
        {
          "internalType": "bytes",
          "name": "data",
          "type": "bytes"
        }
      ],
      "name": "safeBatchTransferFrom",
      "outputs": [],
      "stateMutability": "nonpayable",
      "type": "function"
    },
    {
      "inputs": [
        {
          "internalType": "address",
          "name": "from",
          "type": "address"
        },
        {
          "internalType": "address",
          "name": "to",
          "type": "address"
        },
        {
          "internalType": "uint256",
          "name": "id",
          "type": "uint256"
        },
        {
          "internalType": "uint256",
          "name": "value",
          "type": "uint256"
        },
        {
          "internalType": "bytes",
          "name": "data",
          "type": "bytes"
        }
      ],
      "name": "safeTransferFrom",
      "outputs": [],
      "stateMutability": "nonpayable",
      "type": "function"
    },
    {
      "inputs": [
        {
          "internalType": "address",
          "name": "operator",
          "type": "address"
        },
        {
          "internalType": "bool",
          "name": "approved",
          "type": "bool"
        }
      ],
      "name": "setApprovalForAll",
      "outputs": [],
      "stateMutability": "nonpayable",
      "type": "function"
    },
    {
      "inputs": [
        {
          "internalType": "bytes4",
          "name": "interfaceId",
          "type": "bytes4"
        }
      ],
      "name": "supportsInterface",
      "outputs": [
        {
          "internalType": "bool",
          "name": "",
          "type": "bool"
        }
      ],
      "stateMutability": "view",
      "type": "function"
    },
    {
      "inputs": [
        {
          "internalType": "uint256",
          "name": "",
          "type": "uint256"
        }
      ],
      "name": "uri",
      "outputs": [
        {
          "internalType": "string",
          "name": "",
          "type": "string"
        }
      ],
      "stateMutability": "view",
      "type": "function"
    }
  ],
  "bytecode": "0x608060405234801561000f575f5ffd5b5060405161145438038061145483398101604081905261002e91610063565b806100388161003f565b5050610251565b600261004b8282610197565b5050565b634e487b7160e01b5f52604160045260245ffd5b5f60208284031215610073575f5ffd5b81516001600160401b03811115610088575f5ffd5b8201601f81018413610098575f5ffd5b80516001600160401b038111156100b1576100b161004f565b604051601f8201601f19908116603f011681016001600160401b03811182821017156100df576100df61004f565b6040528181528282016020018610156100f6575f5ffd5b8160208401602083015e5f91810160200191909152949350505050565b600181811c9082168061012757607f821691505b60208210810361014557634e487b7160e01b5f52602260045260245ffd5b50919050565b601f82111561019257805f5260205f20601f840160051c810160208510156101705750805b601f840160051c820191505b8181101561018f575f815560010161017c565b50505b505050565b81516001600160401b038111156101b0576101b061004f565b6101c4816101be8454610113565b8461014b565b6020601f8211600181146101f6575f83156101df5750848201515b5f19600385901b1c1916600184901b17845561018f565b5f84815260208120601f198516915b828110156102255787850151825560209485019460019092019101610205565b508482101561024257868401515f19600387901b60f8161c191681555b50505050600190811b01905550565b6111f68061025e5f395ff3fe608060405234801561000f575f5ffd5b50600436106100a5575f3560e01c80634e1273f41161006e5780634e1273f4146101495780639402039214610169578063995770891461017c578063a22cb46514610184578063e985e9c514610197578063f242432a146101d2575f5ffd5b8062fdd58e146100a957806301ffc9a7146100cf5780630e89341c146100f25780632eb2c2d61461011257806338e21cce14610127575b5f5ffd5b6100bc6100b7366004610be0565b6101e5565b6040519081526020015b60405180910390f35b6100e26100dd366004610c20565b61020c565b60405190151581526020016100c6565b610105610100366004610c42565b61025b565b6040516100c69190610c87565b610125610120366004610dd7565b6102ed565b005b6100e2610135366004610e86565b60036020525f908152604090205460ff1681565b61015c610157366004610e9f565b61030c565b6040516100c69190610f9c565b610125610177366004610e86565b6103dc565b6100bc600181565b610125610192366004610fae565b6104ab565b6100e26101a5366004610fe7565b6001600160a01b039182165f90815260016020908152604080832093909416825291909152205460ff1690565b6101256101e0366004611018565b6104ba565b5f818152602081815260408083206001600160a01b03861684529091529020545b92915050565b5f6001600160e01b03198216636cdb3d1360e11b148061023c57506001600160e01b031982166303a24d0760e21b145b8061020657506301ffc9a760e01b6001600160e01b0319831614610206565b60606002805461026a9061106c565b80601f01602080910402602001604051908101604052809291908181526020018280546102969061106c565b80156102e15780601f106102b8576101008083540402835291602001916102e1565b820191905f5260205f20905b8154815290600101906020018083116102c457829003601f168201915b50505050509050919050565b6102f8335b866104d0565b6103058585858585610548565b5050505050565b606081518351146103425781518351604051635b05999160e01b8152600481019290925260248201526044015b60405180910390fd5b5f835167ffffffffffffffff81111561035d5761035d610c99565b604051908082528060200260200182016040528015610386578160200160208202803683370190505b5090505f5b84518110156103d4576020808202860101516103af906020808402870101516101e5565b8282815181106103c1576103c16110a4565b602090810291909101015260010161038b565b509392505050565b6001600160a01b0381165f9081526003602052604090205460ff16156104355760405162461bcd60e51b815260206004820152600e60248201526d105b1c9958591e481b5a5b9d195960921b6044820152606401610339565b6001600160a01b0381165f908152600360209081526040808320805460ff19166001908117909155815192830190915291815261047591839181906105a8565b6040516001600160a01b038216907fbc2acae1123e5797c3b04a36f8f6e1efed60ad0ed8054870613667f09bcc3c14905f90a250565b6104b633838361060c565b5050565b6104c3336102f2565b61030585858585856106c9565b816001600160a01b0316816001600160a01b03161415801561051757506001600160a01b038082165f9081526001602090815260408083209386168352929052205460ff16155b156104b65760405163711bec9160e11b81526001600160a01b03808416600483015282166024820152604401610339565b6001600160a01b03841661057157604051632bfa23e760e11b81525f6004820152602401610339565b6001600160a01b03851661059957604051626a0d4560e21b81525f6004820152602401610339565b61030585858585856001610756565b6001600160a01b0384166105d157604051632bfa23e760e11b81525f6004820152602401610339565b604080516001808252602082018690528183019081526060820185905260808201909252906106045f8784848784610756565b505050505050565b6001600160a01b03831661063557604051631f18c42760e11b81525f6004820152602401610339565b6001600160a01b03821661065d5760405162ced3e160e81b81525f6004820152602401610339565b6001600160a01b038381165f81815260016020908152604080832094871680845294825291829020805460ff191686151590811790915591519182527f17307eab39ab6107e8899845ad3d59bd9653f200f220920489ca2b5937696c31910160405180910390a3505050565b6001600160a01b0384166106f257604051632bfa23e760e11b81525f6004820152602401610339565b6001600160a01b03851661071a57604051626a0d4560e21b81525f6004820152602401610339565b6040805160018082526020820186905281830190815260608201859052608082019092529061074d87878484875f610756565b50505050505050565b610762868686866107ae565b6001600160a01b038516156106045733811561078b576107868188888888886109bd565b61074d565b602085810151908501516107a3838a8a85858a610ade565b505050505050505050565b80518251146107dd5781518151604051635b05999160e01b815260048101929092526024820152604401610339565b335f5b83518110156108df576020818102858101820151908501909101516001600160a01b03881615610891575f828152602081815260408083206001600160a01b038c1684529091529020548181101561086b576040516303dee4c560e01b81526001600160a01b038a166004820152602481018290526044810183905260648101849052608401610339565b5f838152602081815260408083206001600160a01b038d16845290915290209082900390555b6001600160a01b038716156108d5575f828152602081815260408083206001600160a01b038b168452909152812080548392906108cf9084906110b8565b90915550505b50506001016107e0565b50825160010361095f5760208301515f906020840151909150856001600160a01b0316876001600160a01b0316846001600160a01b03167fc3d58168c5ae7397731d063d5bbf3d657854427343f4c083240f7aacaa2d0f628585604051610950929190918252602082015260400190565b60405180910390a45050610305565b836001600160a01b0316856001600160a01b0316826001600160a01b03167f4a39dc06d4c0dbc64b70af90fd698a233a518aa5d07e595d983b8c0526c8f7fb86866040516109ae9291906110d7565b60405180910390a45050505050565b6001600160a01b0384163b156106045760405163bc197c8160e01b81526001600160a01b0385169063bc197c8190610a019089908990889088908890600401611104565b6020604051808303815f875af1925050508015610a3b575060408051601f3d908101601f19168201909252610a3891810190611161565b60015b610aa2573d808015610a68576040519150601f19603f3d011682016040523d82523d5f602084013e610a6d565b606091505b5080515f03610a9a57604051632bfa23e760e11b81526001600160a01b0386166004820152602401610339565b805160208201fd5b6001600160e01b0319811663bc197c8160e01b1461074d57604051632bfa23e760e11b81526001600160a01b0386166004820152602401610339565b6001600160a01b0384163b156106045760405163f23a6e6160e01b81526001600160a01b0385169063f23a6e6190610b22908990899088908890889060040161117c565b6020604051808303815f875af1925050508015610b5c575060408051601f3d908101601f19168201909252610b5991810190611161565b60015b610b89573d808015610a68576040519150601f19603f3d011682016040523d82523d5f602084013e610a6d565b6001600160e01b0319811663f23a6e6160e01b1461074d57604051632bfa23e760e11b81526001600160a01b0386166004820152602401610339565b80356001600160a01b0381168114610bdb575f5ffd5b919050565b5f5f60408385031215610bf1575f5ffd5b610bfa83610bc5565b946020939093013593505050565b6001600160e01b031981168114610c1d575f5ffd5b50565b5f60208284031215610c30575f5ffd5b8135610c3b81610c08565b9392505050565b5f60208284031215610c52575f5ffd5b5035919050565b5f81518084528060208401602086015e5f602082860101526020601f19601f83011685010191505092915050565b602081525f610c3b6020830184610c59565b634e487b7160e01b5f52604160045260245ffd5b604051601f8201601f1916810167ffffffffffffffff81118282101715610cd657610cd6610c99565b604052919050565b5f67ffffffffffffffff821115610cf757610cf7610c99565b5060051b60200190565b5f82601f830112610d10575f5ffd5b8135610d23610d1e82610cde565b610cad565b8082825260208201915060208360051b860101925085831115610d44575f5ffd5b602085015b83811015610d61578035835260209283019201610d49565b5095945050505050565b5f82601f830112610d7a575f5ffd5b813567ffffffffffffffff811115610d9457610d94610c99565b610da7601f8201601f1916602001610cad565b818152846020838601011115610dbb575f5ffd5b816020850160208301375f918101602001919091529392505050565b5f5f5f5f5f60a08688031215610deb575f5ffd5b610df486610bc5565b9450610e0260208701610bc5565b9350604086013567ffffffffffffffff811115610e1d575f5ffd5b610e2988828901610d01565b935050606086013567ffffffffffffffff811115610e45575f5ffd5b610e5188828901610d01565b925050608086013567ffffffffffffffff811115610e6d575f5ffd5b610e7988828901610d6b565b9150509295509295909350565b5f60208284031215610e96575f5ffd5b610c3b82610bc5565b5f5f60408385031215610eb0575f5ffd5b823567ffffffffffffffff811115610ec6575f5ffd5b8301601f81018513610ed6575f5ffd5b8035610ee4610d1e82610cde565b8082825260208201915060208360051b850101925087831115610f05575f5ffd5b6020840193505b82841015610f2e57610f1d84610bc5565b825260209384019390910190610f0c565b9450505050602083013567ffffffffffffffff811115610f4c575f5ffd5b610f5885828601610d01565b9150509250929050565b5f8151808452602084019350602083015f5b82811015610f92578151865260209586019590910190600101610f74565b5093949350505050565b602081525f610c3b6020830184610f62565b5f5f60408385031215610fbf575f5ffd5b610fc883610bc5565b915060208301358015158114610fdc575f5ffd5b809150509250929050565b5f5f60408385031215610ff8575f5ffd5b61100183610bc5565b915061100f60208401610bc5565b90509250929050565b5f5f5f5f5f60a0868803121561102c575f5ffd5b61103586610bc5565b945061104360208701610bc5565b93506040860135925060608601359150608086013567ffffffffffffffff811115610e6d575f5ffd5b600181811c9082168061108057607f821691505b60208210810361109e57634e487b7160e01b5f52602260045260245ffd5b50919050565b634e487b7160e01b5f52603260045260245ffd5b8082018082111561020657634e487b7160e01b5f52601160045260245ffd5b604081525f6110e96040830185610f62565b82810360208401526110fb8185610f62565b95945050505050565b6001600160a01b0386811682528516602082015260a0604082018190525f9061112f90830186610f62565b82810360608401526111418186610f62565b905082810360808401526111558185610c59565b98975050505050505050565b5f60208284031215611171575f5ffd5b8151610c3b81610c08565b6001600160a01b03868116825285166020820152604081018490526060810183905260a0608082018190525f906111b590830184610c59565b97965050505050505056fea264697066735822122036d32ff16075d2983f5ca6c5b32e7633f2f96264a31e419fd2136f36fdb5733464736f6c634300081c0033",
  "linkReferences": {},
  "deployedLinkReferences": {}
}